{
  "contractName": "World",
  "abi": [
    {
      "inputs": [
        {
          "internalType": "contract Token",
          "name": "_token",
          "type": "address"
        }
      ],
      "stateMutability": "nonpayable",
      "type": "constructor"
    },
    {
      "anonymous": false,
      "inputs": [
        {
          "indexed": true,
          "internalType": "address",
          "name": "owner",
          "type": "address"
        },
        {
          "indexed": true,
          "internalType": "address",
          "name": "approved",
          "type": "address"
        },
        {
          "indexed": true,
          "internalType": "uint256",
          "name": "tokenId",
          "type": "uint256"
        }
      ],
      "name": "Approval",
      "type": "event"
    },
    {
      "anonymous": false,
      "inputs": [
        {
          "indexed": true,
          "internalType": "address",
          "name": "owner",
          "type": "address"
        },
        {
          "indexed": true,
          "internalType": "address",
          "name": "operator",
          "type": "address"
        },
        {
          "indexed": false,
          "internalType": "bool",
          "name": "approved",
          "type": "bool"
        }
      ],
      "name": "ApprovalForAll",
      "type": "event"
    },
    {
      "anonymous": false,
      "inputs": [
        {
          "indexed": true,
          "internalType": "address",
          "name": "previousOwner",
          "type": "address"
        },
        {
          "indexed": true,
          "internalType": "address",
          "name": "newOwner",
          "type": "address"
        }
      ],
      "name": "OwnershipTransferred",
      "type": "event"
    },
    {
      "anonymous": false,
      "inputs": [
        {
          "indexed": true,
          "internalType": "address",
          "name": "from",
          "type": "address"
        },
        {
          "indexed": true,
          "internalType": "address",
          "name": "to",
          "type": "address"
        },
        {
          "indexed": true,
          "internalType": "uint256",
          "name": "tokenId",
          "type": "uint256"
        }
      ],
      "name": "Transfer",
      "type": "event"
    },
    {
      "inputs": [
        {
          "internalType": "address",
          "name": "to",
          "type": "address"
        },
        {
          "internalType": "uint256",
          "name": "tokenId",
          "type": "uint256"
        }
      ],
      "name": "approve",
      "outputs": [],
      "stateMutability": "nonpayable",
      "type": "function"
    },
    {
      "inputs": [
        {
          "internalType": "address",
          "name": "owner",
          "type": "address"
        }
      ],
      "name": "balanceOf",
      "outputs": [
        {
          "internalType": "uint256",
          "name": "",
          "type": "uint256"
        }
      ],
      "stateMutability": "view",
      "type": "function"
    },
    {
      "inputs": [
        {
          "internalType": "uint256",
          "name": "tokenId",
          "type": "uint256"
        }
      ],
      "name": "getApproved",
      "outputs": [
        {
          "internalType": "address",
          "name": "",
          "type": "address"
        }
      ],
      "stateMutability": "view",
      "type": "function"
    },
    {
      "inputs": [
        {
          "internalType": "address",
          "name": "owner",
          "type": "address"
        },
        {
          "internalType": "address",
          "name": "operator",
          "type": "address"
        }
      ],
      "name": "isApprovedForAll",
      "outputs": [
        {
          "internalType": "bool",
          "name": "",
          "type": "bool"
        }
      ],
      "stateMutability": "view",
      "type": "function"
    },
    {
      "inputs": [],
      "name": "name",
      "outputs": [
        {
          "internalType": "string",
          "name": "",
          "type": "string"
        }
      ],
      "stateMutability": "view",
      "type": "function"
    },
    {
      "inputs": [],
      "name": "owner",
      "outputs": [
        {
          "internalType": "address",
          "name": "",
          "type": "address"
        }
      ],
      "stateMutability": "view",
      "type": "function"
    },
    {
      "inputs": [
        {
          "internalType": "uint256",
          "name": "tokenId",
          "type": "uint256"
        }
      ],
      "name": "ownerOf",
      "outputs": [
        {
          "internalType": "address",
          "name": "",
          "type": "address"
        }
      ],
      "stateMutability": "view",
      "type": "function"
    },
    {
      "inputs": [],
      "name": "renounceOwnership",
      "outputs": [],
      "stateMutability": "nonpayable",
      "type": "function"
    },
    {
      "inputs": [
        {
          "internalType": "address",
          "name": "from",
          "type": "address"
        },
        {
          "internalType": "address",
          "name": "to",
          "type": "address"
        },
        {
          "internalType": "uint256",
          "name": "tokenId",
          "type": "uint256"
        }
      ],
      "name": "safeTransferFrom",
      "outputs": [],
      "stateMutability": "nonpayable",
      "type": "function"
    },
    {
      "inputs": [
        {
          "internalType": "address",
          "name": "from",
          "type": "address"
        },
        {
          "internalType": "address",
          "name": "to",
          "type": "address"
        },
        {
          "internalType": "uint256",
          "name": "tokenId",
          "type": "uint256"
        },
        {
          "internalType": "bytes",
          "name": "data",
          "type": "bytes"
        }
      ],
      "name": "safeTransferFrom",
      "outputs": [],
      "stateMutability": "nonpayable",
      "type": "function"
    },
    {
      "inputs": [
        {
          "internalType": "address",
          "name": "operator",
          "type": "address"
        },
        {
          "internalType": "bool",
          "name": "approved",
          "type": "bool"
        }
      ],
      "name": "setApprovalForAll",
      "outputs": [],
      "stateMutability": "nonpayable",
      "type": "function"
    },
    {
      "inputs": [
        {
          "internalType": "bytes4",
          "name": "interfaceId",
          "type": "bytes4"
        }
      ],
      "name": "supportsInterface",
      "outputs": [
        {
          "internalType": "bool",
          "name": "",
          "type": "bool"
        }
      ],
      "stateMutability": "view",
      "type": "function"
    },
    {
      "inputs": [],
      "name": "symbol",
      "outputs": [
        {
          "internalType": "string",
          "name": "",
          "type": "string"
        }
      ],
      "stateMutability": "view",
      "type": "function"
    },
    {
      "inputs": [
        {
          "internalType": "uint256",
          "name": "tokenId",
          "type": "uint256"
        }
      ],
      "name": "tokenURI",
      "outputs": [
        {
          "internalType": "string",
          "name": "",
          "type": "string"
        }
      ],
      "stateMutability": "view",
      "type": "function"
    },
    {
      "inputs": [
        {
          "internalType": "address",
          "name": "from",
          "type": "address"
        },
        {
          "internalType": "address",
          "name": "to",
          "type": "address"
        },
        {
          "internalType": "uint256",
          "name": "tokenId",
          "type": "uint256"
        }
      ],
      "name": "transferFrom",
      "outputs": [],
      "stateMutability": "nonpayable",
      "type": "function"
    },
    {
      "inputs": [
        {
          "internalType": "address",
          "name": "newOwner",
          "type": "address"
        }
      ],
      "name": "transferOwnership",
      "outputs": [],
      "stateMutability": "nonpayable",
      "type": "function"
    },
    {
      "inputs": [
        {
          "internalType": "uint8",
          "name": "row",
          "type": "uint8"
        },
        {
          "internalType": "uint8",
          "name": "col",
          "type": "uint8"
        },
        {
          "internalType": "enum LandType",
          "name": "landType",
          "type": "uint8"
        },
        {
          "internalType": "uint256",
          "name": "price",
          "type": "uint256"
        }
      ],
      "name": "mint",
      "outputs": [],
      "stateMutability": "nonpayable",
      "type": "function"
    },
    {
      "inputs": [],
      "name": "getTokensCount",
      "outputs": [
        {
          "internalType": "uint256",
          "name": "",
          "type": "uint256"
        }
      ],
      "stateMutability": "view",
      "type": "function"
    },
    {
      "inputs": [],
      "name": "getMap",
      "outputs": [
        {
          "internalType": "address[]",
          "name": "",
          "type": "address[]"
        },
        {
          "components": [
            {
              "internalType": "uint256",
              "name": "tokenId",
              "type": "uint256"
            },
            {
              "internalType": "uint8",
              "name": "row",
              "type": "uint8"
            },
            {
              "internalType": "uint8",
              "name": "col",
              "type": "uint8"
            },
            {
              "internalType": "enum LandType",
              "name": "landType",
              "type": "uint8"
            },
            {
              "internalType": "string",
              "name": "game",
              "type": "string"
            },
            {
              "internalType": "uint256",
              "name": "price",
              "type": "uint256"
            }
          ],
          "internalType": "struct World.Land[]",
          "name": "",
          "type": "tuple[]"
        }
      ],
      "stateMutability": "view",
      "type": "function"
    },
    {
      "inputs": [
        {
          "components": [
            {
              "internalType": "uint256",
              "name": "tokenId",
              "type": "uint256"
            },
            {
              "internalType": "uint8",
              "name": "row",
              "type": "uint8"
            },
            {
              "internalType": "uint8",
              "name": "col",
              "type": "uint8"
            },
            {
              "internalType": "enum LandType",
              "name": "landType",
              "type": "uint8"
            },
            {
              "internalType": "string",
              "name": "game",
              "type": "string"
            },
            {
              "internalType": "uint256",
              "name": "price",
              "type": "uint256"
            }
          ],
          "internalType": "struct World.Land",
          "name": "land",
          "type": "tuple"
        }
      ],
      "name": "setLand",
      "outputs": [],
      "stateMutability": "nonpayable",
      "type": "function"
    },
    {
      "inputs": [
        {
          "internalType": "uint256",
          "name": "tokenId",
          "type": "uint256"
        },
        {
          "internalType": "address",
          "name": "to",
          "type": "address"
        }
      ],
      "name": "transferLand",
      "outputs": [],
      "stateMutability": "payable",
      "type": "function"
    }
  ],
  "bytecode": "0x60806040523480156200001157600080fd5b50604051620023b5380380620023b58339810160408190526200003491620001db565b6040518060400160405280600481526020016313185b9960e21b815250604051806040016040528060048152602001631310539160e21b81525081600090805190602001906200008692919062000135565b5080516200009c90600190602084019062000135565b505050620000b9620000b3620000df60201b60201c565b620000e3565b600880546001600160a01b0319166001600160a01b03929092169190911790556200024a565b3390565b600680546001600160a01b038381166001600160a01b0319831681179093556040519116919082907f8be0079c531659141344cd1fd0a4f28419497f9722a3daafe3b4186f6b6457e090600090a35050565b82805462000143906200020d565b90600052602060002090601f016020900481019282620001675760008555620001b2565b82601f106200018257805160ff1916838001178555620001b2565b82800160010185558215620001b2579182015b82811115620001b257825182559160200191906001019062000195565b50620001c0929150620001c4565b5090565b5b80821115620001c05760008155600101620001c5565b600060208284031215620001ee57600080fd5b81516001600160a01b03811681146200020657600080fd5b9392505050565b600181811c908216806200022257607f821691505b602082108114156200024457634e487b7160e01b600052602260045260246000fd5b50919050565b61215b806200025a6000396000f3fe60806040526004361061012a5760003560e01c806383d5a45e116100ab578063ad3de14c1161006f578063ad3de14c1461032b578063b88d4fde1461034e578063c798ff7d1461036e578063c87b56dd14610381578063e985e9c5146103a1578063f2fde38b146103c157600080fd5b806383d5a45e146102985780638da5cb5b146102b857806395d89b41146102d6578063a05e9ff8146102eb578063a22cb4651461030b57600080fd5b80633962f82d116100f25780633962f82d1461020057806342842e0e146102235780636352211e1461024357806370a0823114610263578063715018a61461028357600080fd5b806301ffc9a71461012f57806306fdde0314610164578063081812fc14610186578063095ea7b3146101be57806323b872dd146101e0575b600080fd5b34801561013b57600080fd5b5061014f61014a36600461186e565b6103e1565b60405190151581526020015b60405180910390f35b34801561017057600080fd5b50610179610433565b60405161015b91906118e3565b34801561019257600080fd5b506101a66101a13660046118f6565b6104c5565b6040516001600160a01b03909116815260200161015b565b3480156101ca57600080fd5b506101de6101d936600461192b565b6104ec565b005b3480156101ec57600080fd5b506101de6101fb366004611955565b610607565b34801561020c57600080fd5b50610215610638565b60405190815260200161015b565b34801561022f57600080fd5b506101de61023e366004611955565b610648565b34801561024f57600080fd5b506101a661025e3660046118f6565b610663565b34801561026f57600080fd5b5061021561027e366004611991565b6106c3565b34801561028f57600080fd5b506101de610749565b3480156102a457600080fd5b506101de6102b3366004611a7f565b61075d565b3480156102c457600080fd5b506006546001600160a01b03166101a6565b3480156102e257600080fd5b5061017961085c565b3480156102f757600080fd5b506101de610306366004611b4f565b61086b565b34801561031757600080fd5b506101de610326366004611bac565b61099d565b34801561033757600080fd5b506103406109ac565b60405161015b929190611bf9565b34801561035a57600080fd5b506101de610369366004611d00565b610c1c565b6101de61037c366004611d7c565b610c54565b34801561038d57600080fd5b5061017961039c3660046118f6565b610e68565b3480156103ad57600080fd5b5061014f6103bc366004611da8565b610edc565b3480156103cd57600080fd5b506101de6103dc366004611991565b610f0a565b60006001600160e01b031982166380ac58cd60e01b148061041257506001600160e01b03198216635b5e139f60e01b145b8061042d57506301ffc9a760e01b6001600160e01b03198316145b92915050565b60606000805461044290611dd2565b80601f016020809104026020016040519081016040528092919081815260200182805461046e90611dd2565b80156104bb5780601f10610490576101008083540402835291602001916104bb565b820191906000526020600020905b81548152906001019060200180831161049e57829003601f168201915b5050505050905090565b60006104d082610f83565b506000908152600460205260409020546001600160a01b031690565b60006104f782610663565b9050806001600160a01b0316836001600160a01b0316141561056a5760405162461bcd60e51b815260206004820152602160248201527f4552433732313a20617070726f76616c20746f2063757272656e74206f776e656044820152603960f91b60648201526084015b60405180910390fd5b336001600160a01b038216148061058657506105868133610edc565b6105f85760405162461bcd60e51b815260206004820152603d60248201527f4552433732313a20617070726f76652063616c6c6572206973206e6f7420746f60448201527f6b656e206f776e6572206f7220617070726f76656420666f7220616c6c0000006064820152608401610561565b6106028383610fe2565b505050565b6106113382611050565b61062d5760405162461bcd60e51b815260040161056190611e0d565b6106028383836110af565b600061064360075490565b905090565b61060283838360405180602001604052806000815250610c1c565b6000818152600260205260408120546001600160a01b03168061042d5760405162461bcd60e51b8152602060048201526018602482015277115490cdcc8c4e881a5b9d985b1a59081d1bdad95b88125160421b6044820152606401610561565b60006001600160a01b03821661072d5760405162461bcd60e51b815260206004820152602960248201527f4552433732313a2061646472657373207a65726f206973206e6f7420612076616044820152683634b21037bbb732b960b91b6064820152608401610561565b506001600160a01b031660009081526003602052604090205490565b610751611213565b61075b600061126d565b565b80516000908152600260205260409020546001600160a01b03166107c35760405162461bcd60e51b815260206004820152601d60248201527f4c616e6420736574206f66206e6f6e6578697374656e7420746f6b656e0000006044820152606401610561565b805160009081526009602090815260409182902083518155908301516001820180549385015160ff9081166101000261ffff199095169216919091179290921780835560608401518493909162ff000019166201000083600281111561082b5761082b611be3565b02179055506080820151805161084b9160028401916020909101906117bf565b5060a0820151816003015590505050565b60606001805461044290611dd2565b610873611213565b600182600281111561088757610887611be3565b14156108fe576006546001600160a01b031633146108f95760405162461bcd60e51b815260206004820152602960248201527f4f6e6c7920746865206f776e6572206f662074686520776f726c642063616e206044820152686d696e74207061726b60b81b6064820152608401610561565b61091c565b600082600281111561091257610912611be3565b1461091c57600080fd5b61092a600780546001019055565b600061093560075490565b905061094133826112bf565b6109966040518060c001604052808381526020018760ff1681526020018660ff16815260200185600281111561097957610979611be3565b81526040805160208181018352600082528301520184905261075d565b5050505050565b6109a833838361144a565b5050565b60608060006109b9610638565b905060008167ffffffffffffffff8111156109d6576109d66119ac565b6040519080825280602002602001820160405280156109ff578160200160208202803683370190505b50905060008267ffffffffffffffff811115610a1d57610a1d6119ac565b604051908082528060200260200182016040528015610a7c57816020015b6040805160c081018252600080825260208083018290529282018190526060808301829052608083015260a08201528252600019909201910181610a3b5790505b50905060005b83811015610c1157610a9861025e826001611e70565b838281518110610aaa57610aaa611e88565b6001600160a01b039092166020928302919091019091015260096000610ad1836001611e70565b81526020808201929092526040908101600020815160c08101835281548152600182015460ff808216958301959095526101008104851693820193909352929091606084019162010000909104166002811115610b3057610b30611be3565b6002811115610b4157610b41611be3565b8152602001600282018054610b5590611dd2565b80601f0160208091040260200160405190810160405280929190818152602001828054610b8190611dd2565b8015610bce5780601f10610ba357610100808354040283529160200191610bce565b820191906000526020600020905b815481529060010190602001808311610bb157829003601f168201915b50505050508152602001600382015481525050828281518110610bf357610bf3611e88565b60200260200101819052508080610c0990611e9e565b915050610a82565b509094909350915050565b610c263383611050565b610c425760405162461bcd60e51b815260040161056190611e0d565b610c4e84848484611519565b50505050565b6000808381526009602052604090206001015462010000900460ff166002811115610c8157610c81611be3565b14610cce5760405162461bcd60e51b815260206004820152601e60248201527f4f6e6c79204e4654206c616e64732063616e206265207472616e7366657200006044820152606401610561565b336001600160a01b0382161415610d335760405162461bcd60e51b8152602060048201526024808201527f596f752063616e6e6f74207472616e73666572206c616e6420746f20796f757260448201526339b2b63360e11b6064820152608401610561565b6008546001600160a01b03166323b872dd8233600860009054906101000a90046001600160a01b03166001600160a01b031663313ce5676040518163ffffffff1660e01b8152600401602060405180830381865afa158015610d99573d6000803e3d6000fd5b505050506040513d601f19601f82011682018060405250810190610dbd9190611eb9565b610dc890600a611fba565b600087815260096020526040902060030154610de49190611fc9565b6040516001600160e01b031960e086901b1681526001600160a01b03938416600482015292909116602483015260448201526064016020604051808303816000875af1158015610e38573d6000803e3d6000fd5b505050506040513d601f19601f82011682018060405250810190610e5c9190611fe8565b506109a83382846110af565b6060610e7382610f83565b6000610e8a60408051602081019091526000815290565b90506000815111610eaa5760405180602001604052806000815250610ed5565b80610eb48461154c565b604051602001610ec5929190612005565b6040516020818303038152906040525b9392505050565b6001600160a01b03918216600090815260056020908152604080832093909416825291909152205460ff1690565b610f12611213565b6001600160a01b038116610f775760405162461bcd60e51b815260206004820152602660248201527f4f776e61626c653a206e6577206f776e657220697320746865207a65726f206160448201526564647265737360d01b6064820152608401610561565b610f808161126d565b50565b6000818152600260205260409020546001600160a01b0316610f805760405162461bcd60e51b8152602060048201526018602482015277115490cdcc8c4e881a5b9d985b1a59081d1bdad95b88125160421b6044820152606401610561565b600081815260046020526040902080546001600160a01b0319166001600160a01b038416908117909155819061101782610663565b6001600160a01b03167f8c5be1e5ebec7d5bd14f71427d1e84f3dd0314c0f7b2291e5b200ac8c7c3b92560405160405180910390a45050565b60008061105c83610663565b9050806001600160a01b0316846001600160a01b0316148061108357506110838185610edc565b806110a75750836001600160a01b031661109c846104c5565b6001600160a01b0316145b949350505050565b826001600160a01b03166110c282610663565b6001600160a01b0316146110e85760405162461bcd60e51b815260040161056190612034565b6001600160a01b03821661114a5760405162461bcd60e51b8152602060048201526024808201527f4552433732313a207472616e7366657220746f20746865207a65726f206164646044820152637265737360e01b6064820152608401610561565b826001600160a01b031661115d82610663565b6001600160a01b0316146111835760405162461bcd60e51b815260040161056190612034565b600081815260046020908152604080832080546001600160a01b03199081169091556001600160a01b0387811680865260038552838620805460001901905590871680865283862080546001019055868652600290945282852080549092168417909155905184937fddf252ad1be2c89b69c2b068fc378daa952ba7f163c4a11628f55a4df523b3ef91a4505050565b6006546001600160a01b0316331461075b5760405162461bcd60e51b815260206004820181905260248201527f4f776e61626c653a2063616c6c6572206973206e6f7420746865206f776e65726044820152606401610561565b600680546001600160a01b038381166001600160a01b0319831681179093556040519116919082907f8be0079c531659141344cd1fd0a4f28419497f9722a3daafe3b4186f6b6457e090600090a35050565b6001600160a01b0382166113155760405162461bcd60e51b815260206004820181905260248201527f4552433732313a206d696e7420746f20746865207a65726f20616464726573736044820152606401610561565b6000818152600260205260409020546001600160a01b03161561137a5760405162461bcd60e51b815260206004820152601c60248201527f4552433732313a20746f6b656e20616c7265616479206d696e746564000000006044820152606401610561565b6000818152600260205260409020546001600160a01b0316156113df5760405162461bcd60e51b815260206004820152601c60248201527f4552433732313a20746f6b656e20616c7265616479206d696e746564000000006044820152606401610561565b6001600160a01b038216600081815260036020908152604080832080546001019055848352600290915280822080546001600160a01b0319168417905551839291907fddf252ad1be2c89b69c2b068fc378daa952ba7f163c4a11628f55a4df523b3ef908290a45050565b816001600160a01b0316836001600160a01b031614156114ac5760405162461bcd60e51b815260206004820152601960248201527f4552433732313a20617070726f766520746f2063616c6c6572000000000000006044820152606401610561565b6001600160a01b03838116600081815260056020908152604080832094871680845294825291829020805460ff191686151590811790915591519182527f17307eab39ab6107e8899845ad3d59bd9653f200f220920489ca2b5937696c31910160405180910390a3505050565b6115248484846110af565b611530848484846115e9565b610c4e5760405162461bcd60e51b815260040161056190612079565b60606000611559836116e7565b600101905060008167ffffffffffffffff811115611579576115796119ac565b6040519080825280601f01601f1916602001820160405280156115a3576020820181803683370190505b5090508181016020015b600019016f181899199a1a9b1b9c1cb0b131b232b360811b600a86061a8153600a85049450846115dc576115e1565b6115ad565b509392505050565b60006001600160a01b0384163b156116dc57604051630a85bd0160e11b81526001600160a01b0385169063150b7a029061162d9033908990889088906004016120cb565b6020604051808303816000875af1925050508015611668575060408051601f3d908101601f1916820190925261166591810190612108565b60015b6116c2573d808015611696576040519150601f19603f3d011682016040523d82523d6000602084013e61169b565b606091505b5080516116ba5760405162461bcd60e51b815260040161056190612079565b805181602001fd5b6001600160e01b031916630a85bd0160e11b1490506110a7565b506001949350505050565b60008072184f03e93ff9f4daa797ed6e38ed64bf6a1f0160401b83106117265772184f03e93ff9f4daa797ed6e38ed64bf6a1f0160401b830492506040015b6d04ee2d6d415b85acef81000000008310611752576d04ee2d6d415b85acef8100000000830492506020015b662386f26fc10000831061177057662386f26fc10000830492506010015b6305f5e1008310611788576305f5e100830492506008015b612710831061179c57612710830492506004015b606483106117ae576064830492506002015b600a831061042d5760010192915050565b8280546117cb90611dd2565b90600052602060002090601f0160209004810192826117ed5760008555611833565b82601f1061180657805160ff1916838001178555611833565b82800160010185558215611833579182015b82811115611833578251825591602001919060010190611818565b5061183f929150611843565b5090565b5b8082111561183f5760008155600101611844565b6001600160e01b031981168114610f8057600080fd5b60006020828403121561188057600080fd5b8135610ed581611858565b60005b838110156118a657818101518382015260200161188e565b83811115610c4e5750506000910152565b600081518084526118cf81602086016020860161188b565b601f01601f19169290920160200192915050565b602081526000610ed560208301846118b7565b60006020828403121561190857600080fd5b5035919050565b80356001600160a01b038116811461192657600080fd5b919050565b6000806040838503121561193e57600080fd5b6119478361190f565b946020939093013593505050565b60008060006060848603121561196a57600080fd5b6119738461190f565b92506119816020850161190f565b9150604084013590509250925092565b6000602082840312156119a357600080fd5b610ed58261190f565b634e487b7160e01b600052604160045260246000fd5b60405160c0810167ffffffffffffffff811182821017156119e5576119e56119ac565b60405290565b60ff81168114610f8057600080fd5b80356003811061192657600080fd5b600067ffffffffffffffff80841115611a2457611a246119ac565b604051601f8501601f19908116603f01168101908282118183101715611a4c57611a4c6119ac565b81604052809350858152868686011115611a6557600080fd5b858560208301376000602087830101525050509392505050565b600060208284031215611a9157600080fd5b813567ffffffffffffffff80821115611aa957600080fd5b9083019060c08286031215611abd57600080fd5b611ac56119c2565b823581526020830135611ad7816119eb565b60208201526040830135611aea816119eb565b6040820152611afb606084016119fa565b6060820152608083013582811115611b1257600080fd5b83019150601f82018613611b2557600080fd5b611b3486833560208501611a09565b608082015260a083013560a082015280935050505092915050565b60008060008060808587031215611b6557600080fd5b8435611b70816119eb565b93506020850135611b80816119eb565b9250611b8e604086016119fa565b9396929550929360600135925050565b8015158114610f8057600080fd5b60008060408385031215611bbf57600080fd5b611bc88361190f565b91506020830135611bd881611b9e565b809150509250929050565b634e487b7160e01b600052602160045260246000fd5b6040808252835182820181905260009190606090818501906020808901865b83811015611c3d5781516001600160a01b031685529382019390820190600101611c18565b50508683038188015287518084528184019250600581901b8401820189830160005b83811015611cef57868303601f190186528151805184528581015160ff908116878601528a820151168a8501528881015160c09060038110611cb157634e487b7160e01b600052602160045260246000fd5b858b0152608082810151818701839052611ccd838801826118b7565b60a0948501519790940196909652505095850195925090840190600101611c5f565b50909b9a5050505050505050505050565b60008060008060808587031215611d1657600080fd5b611d1f8561190f565b9350611d2d6020860161190f565b925060408501359150606085013567ffffffffffffffff811115611d5057600080fd5b8501601f81018713611d6157600080fd5b611d7087823560208401611a09565b91505092959194509250565b60008060408385031215611d8f57600080fd5b82359150611d9f6020840161190f565b90509250929050565b60008060408385031215611dbb57600080fd5b611dc48361190f565b9150611d9f6020840161190f565b600181811c90821680611de657607f821691505b60208210811415611e0757634e487b7160e01b600052602260045260246000fd5b50919050565b6020808252602d908201527f4552433732313a2063616c6c6572206973206e6f7420746f6b656e206f776e6560408201526c1c881bdc88185c1c1c9bdd9959609a1b606082015260800190565b634e487b7160e01b600052601160045260246000fd5b60008219821115611e8357611e83611e5a565b500190565b634e487b7160e01b600052603260045260246000fd5b6000600019821415611eb257611eb2611e5a565b5060010190565b600060208284031215611ecb57600080fd5b8151610ed5816119eb565b600181815b80851115611f11578160001904821115611ef757611ef7611e5a565b80851615611f0457918102915b93841c9390800290611edb565b509250929050565b600082611f285750600161042d565b81611f355750600061042d565b8160018114611f4b5760028114611f5557611f71565b600191505061042d565b60ff841115611f6657611f66611e5a565b50506001821b61042d565b5060208310610133831016604e8410600b8410161715611f94575081810a61042d565b611f9e8383611ed6565b8060001904821115611fb257611fb2611e5a565b029392505050565b6000610ed560ff841683611f19565b6000816000190483118215151615611fe357611fe3611e5a565b500290565b600060208284031215611ffa57600080fd5b8151610ed581611b9e565b6000835161201781846020880161188b565b83519083019061202b81836020880161188b565b01949350505050565b60208082526025908201527f4552433732313a207472616e736665722066726f6d20696e636f72726563742060408201526437bbb732b960d91b606082015260800190565b60208082526032908201527f4552433732313a207472616e7366657220746f206e6f6e20455243373231526560408201527131b2b4bb32b91034b6b83632b6b2b73a32b960711b606082015260800190565b6001600160a01b03858116825284166020820152604081018390526080606082018190526000906120fe908301846118b7565b9695505050505050565b60006020828403121561211a57600080fd5b8151610ed58161185856fea264697066735822122054bda31bb122c3f0a551137c906057f956ca7c1b085c41c04a21c0a01a3ae51364736f6c634300080a0033",
  "immutableReferences": {},
  "source": "// SPDX-License-Identifier: MIT\r\npragma solidity ^0.8.0;\r\n\r\nimport '@openzeppelin/contracts/token/ERC721/ERC721.sol';\r\nimport \"@openzeppelin/contracts/utils/Counters.sol\";\r\nimport '@openzeppelin/contracts/access/Ownable.sol';\r\nimport './Token.sol';\r\n\r\nenum LandType { NFT, PARK, ROAD }\r\n\r\ncontract World is ERC721, Ownable {\r\n    using Counters for Counters.Counter;\r\n\r\n    Counters.Counter private _tokenIds;\r\n    Token private token;\r\n\r\n    struct Land {\r\n        uint256 tokenId;\r\n        uint8 row;\r\n        uint8 col;\r\n        LandType landType;\r\n        string game;\r\n        uint256 price;\r\n    }\r\n\r\n    mapping(uint256 => Land) private lands;\r\n\r\n    constructor(Token _token) ERC721('Land', 'LAND') Ownable() {\r\n        token = _token;\r\n    }\r\n\r\n    function mint(uint8 row, uint8 col, LandType landType, uint256 price) public onlyOwner {\r\n        if (landType == LandType.PARK) {\r\n            require(owner() == _msgSender(), 'Only the owner of the world can mint park');\r\n        } else {\r\n            require(landType == LandType.NFT);\r\n        }\r\n\r\n        _tokenIds.increment();\r\n\r\n        uint256 tokenId = _tokenIds.current();\r\n        _mint(_msgSender(), tokenId);\r\n        setLand(Land(tokenId, row, col, landType, '', price));\r\n    }\r\n\r\n    function getTokensCount() public view returns (uint256) {\r\n        return _tokenIds.current();\r\n    }\r\n\r\n    function getMap() public view returns (address[] memory, Land[] memory) {\r\n        uint256 numOfTokens = getTokensCount();\r\n        address[] memory owners = new address[](numOfTokens);\r\n        Land[] memory map = new Land[](numOfTokens);\r\n\r\n        for (uint256 i = 0; i < numOfTokens; i++) {\r\n            owners[i] = ownerOf(i + 1);\r\n            map[i] = lands[i + 1];\r\n        }\r\n\r\n        return (owners, map);\r\n    }\r\n\r\n    function setLand(Land memory land) public {\r\n        require(_exists(land.tokenId), 'Land set of nonexistent token');\r\n        require(land.price >= 0, 'Land price cannot be negative number');\r\n\r\n        lands[land.tokenId] = land;\r\n    }\r\n\r\n    function transferLand(uint256 tokenId, address to) public payable {\r\n        require(lands[tokenId].landType == LandType.NFT, 'Only NFT lands can be transfer');\r\n        require(_msgSender() != to, 'You cannot transfer land to yourself');\r\n\r\n        token.transferFrom(to, _msgSender(), lands[tokenId].price * (10 ** token.decimals()));\r\n        _transfer(_msgSender(), to, tokenId);\r\n    }\r\n}",
  "sourcePath": "C:\\Codes_WorkSpaces\\Blockchain_Workspace\\Decentraland_Project\\Final Project\\contracts\\World.sol",
  "compiler": {
    "name": "solc",
    "version": "0.8.10+commit.fc410830.Emscripten.clang"
  },
  "schemaVersion": "3.4.14",
  "updatedAt": "2023-07-29T16:14:03.042Z",
  "devdoc": {
    "kind": "dev",
    "methods": {
      "approve(address,uint256)": {
        "details": "See {IERC721-approve}."
      },
      "balanceOf(address)": {
        "details": "See {IERC721-balanceOf}."
      },
      "getApproved(uint256)": {
        "details": "See {IERC721-getApproved}."
      },
      "isApprovedForAll(address,address)": {
        "details": "See {IERC721-isApprovedForAll}."
      },
      "name()": {
        "details": "See {IERC721Metadata-name}."
      },
      "owner()": {
        "details": "Returns the address of the current owner."
      },
      "ownerOf(uint256)": {
        "details": "See {IERC721-ownerOf}."
      },
      "renounceOwnership()": {
        "details": "Leaves the contract without owner. It will not be possible to call `onlyOwner` functions. Can only be called by the current owner. NOTE: Renouncing ownership will leave the contract without an owner, thereby disabling any functionality that is only available to the owner."
      },
      "safeTransferFrom(address,address,uint256)": {
        "details": "See {IERC721-safeTransferFrom}."
      },
      "safeTransferFrom(address,address,uint256,bytes)": {
        "details": "See {IERC721-safeTransferFrom}."
      },
      "setApprovalForAll(address,bool)": {
        "details": "See {IERC721-setApprovalForAll}."
      },
      "supportsInterface(bytes4)": {
        "details": "See {IERC165-supportsInterface}."
      },
      "symbol()": {
        "details": "See {IERC721Metadata-symbol}."
      },
      "tokenURI(uint256)": {
        "details": "See {IERC721Metadata-tokenURI}."
      },
      "transferFrom(address,address,uint256)": {
        "details": "See {IERC721-transferFrom}."
      },
      "transferOwnership(address)": {
        "details": "Transfers ownership of the contract to a new account (`newOwner`). Can only be called by the current owner."
      }
    },
    "version": 1
  },
  "userdoc": {
    "kind": "user",
    "methods": {},
    "version": 1
  }
}